:020000040000FA
:1000000048020020AD000000CB050000D103000035
:10001000FFFFFFFFFFFFFFFFFFFFFFFFFFFFFFFFF0
:10002000FFFFFFFFFFFFFFFFFFFFFFFF01060000D5
:10003000FFFFFFFFFFFFFFFFCD05000003060000ED
:10004000BF000000BF000000BF000000BF000000B4
:10005000BF000000BF000000BF000000FFFFFFFF67
:10006000BF000000FFFFFFFFBF000000FFFFFFFF1A
:10007000BF000000BF000000BF000000BF00000084
:10008000BF000000BF000000BF000000BF00000074
:10009000BF000000BF000000BF000000BF00000064
:1000A000FFFFFFFFBF000000BF00000004488047C3
:1000B00004480047FEE7FEE7FEE7FEE7FEE7FEE74F
:1000C00005060000C90000000348854600F070F8EE
:1000D00000480047850A00004802002030B50B4662
:1000E000014600202022012409E00D46D5409D4212
:1000F00005D31D469540491B254695404019154698
:10010000521E002DF1DC30BD0549064A08685043F7
:10011000054A801808604008704701490860704728
:10012000040000206D4EC64139300000D2B201E01B
:100130000270401C491EFBD270470022F6E710B542
:1001400013460A4604461946FFF7F0FF204610BD45
:10015000F0B51FB40646002082B005464024019148
:1001600000901BE0019922460F46304600F042F80D
:10017000049A059B801A994110D3104619462246CD
:1001800000F028F8361A8F410197224601200021FD
:10019000009F00F01FF838184D4100902046641E63
:1001A0000028DFDC019B00982946324607B0F0BDED
:1001B000064C0125064E05E0E36807CC2B430C3CBA
:1001C00098471034B442F7D3FFF782FFA40B000026
:1001D000C40B000010B5202A04DB0146203A9140F0
:1001E000002010BD914020239C1A0346E340194390
:1001F000904010BD10B5202A04DB0846203AD040BC
:10020000002110BD0B46D340D0402024A21A9140BB
:100210000843194610BD0000F0B596460A4613493A
:10022000C000461800230025FF2098402C461042AD
:1002300016D00020012199408C461146C1406746E6
:10024000394206D087000F21B9400D437146B940AD
:100250000C43401C0828F0D33068A843204330608A
:100260000833361D082BDEDDF0BD000020200240E3
:1002700070B51A4D0446686B4607760F00F032F8E9
:1002800017492060330000F06FFA081505070715BD
:10029000150F1215606000E06160286A05280BD315
:1002A00060684009A0600AE00120C003F2E77D20F9
:1002B0000002EFE70020EDE76168C140A160A86A95
:1002C0004003400F072803D0A168C140E16070BD22
:1002D0000321A068FFF702FFE06070BD00800840C6
:1002E00000127A0010B50D4A1068D0690121C30FC1
:1002F0005068400A08400FD00948002B0CD1936980
:10030000DB0D1C07240F00D1102492695202920FBA
:100310009140FFF7E3FE604310BD000000800840FD
:1003200000127A001FB541090A4A89008A18002183
:100330002E2800D10221C006C00E1268032383407C
:100340001A40C24054186846FFF792FF029804B062
:10035000E04010BD38800840F0B5084F7C6AFD6A67
:100360003E6B84438D439643002B02D004430D43E0
:1003700016437C62FD623E63F0BD000000800840D1
:1003800070B50D4611490001441800200921C90229
:1003900001230246FFF7E0FF227AE1882079FFF788
:1003A0003BFFA27BA189A07AFFF736FF2946206890
:1003B00000F076F901220021206800F09DF9012269
:1003C0001146206800F098F970BD0000940B000001
:1003D000FEE70029016802D00122114301E049082B
:1003E000490001607047C068884201D10120704710
:1003F00000207047C160704708220029016801D0C1
:10040000114300E09143016070470000F8B51446C5
:100410000F46054600F07AF91D2676043146264837
:10042000FFF7E1FF0028F9D0390A234800F0C1F8AE
:10043000214E1D2149043046FFF7D5FF0028F8D092
:10044000F9B2304600F0B5F801229202512130464F
:1004500000F0B1F8194F30463946FFF7C4FF0028C5
:10046000F9D0164FFF1C39463046FFF7BCFF002875
:10047000F9D0012C03D901213046FFF7AAFF192733
:100480003F04002C13D039463046FFF7ACFF00285C
:10049000F9D0304600F08AF82870641EA4B26D1CB2
:1004A000012CEED100213046FFF793FFEBE73046F9
:1004B00000F02CF8F8BD0000009004400100180086
:1004C00010B50024224686B00E4901231046FFF7DE
:1004D00043FF01210722C9030120FFF79DFE0722E8
:1004E00001210220FFF798FE0094019468460294CF
:1004F00084817D20400104906946034800F010F893
:1005000006B010BD024000000090044001680222C5
:10051000114301607047C068084000D00120704757
:10052000F8B50E46044600250121FFF765FF03CE0E
:1005300022680843316885239A43114308432060A9
:10054000B088A0601848083E844201D1002000E035
:100550000220FFF7E7FE07462068032189030840D1
:100560001ED001218903401A1CD0884200D10925E0
:10057000316914204143F80038180091FFF7AEFDAF
:10058000461B0B2078430099FFF7A8FD401B002E67
:1005900000DA0026002800DA002026616061F8BD3C
:1005A0000625E5E70825E3E7008004408069C0B23E
:1005B00070478161704703689B07FCD4002A02D012
:1005C000012292021143C1617047704770470EB516
:1005D000E12040020090FF20013069468880002021
:1005E000C88008814881FFF7CBFE0EBD0349C2B227
:1005F0000A600A69D205FCD570470000001004406B
:100600007047704720480169002908D141690029D5
:1006100005D18169002902D1C06900282CD01B496D
:10062000012008601A484168021511434160816841
:100630008908C907FBD00168FF220132914301609C
:100640000521C905816141685200114341608168FB
:100650004908C907FBD00F4A1168C908C900891C9D
:1006600011604168C908C900491C4160416B4907D4
:10067000490F0129FAD17047BFF34F8F0749064848
:10068000C860BFF34F8FFEE70003084000830840B7
:1006900000800840000208400400FA0500ED00E078
:1006A00070B504460D46C888898862680843298960
:1006B0000E4B1A40114308436989084360600120CA
:1006C0008007844201D1182003E00948844207D101
:1006D0001C20FFF727FE2968FFF700FD606270BD50
:1006E00004488442FBD11E20F3E70000FCE0FFFF3A
:1006F000001000400010044010238B404168002A85
:1007000001D0194300E099434160704770B501245E
:100710000C4DE40421462846FFF7FDFE0028F9D1E0
:1007200001246402002251212846FFF744FF284695
:10073000C268510705D49105FAD52146FFF75AFE44
:10074000F0E770BD009004400FB410B503A9044B4E
:10075000044A029800F024F810BC08BC04B0184702
:100760007D0A00000000002030B47446641E257825
:10077000641CAB4200D21D46635D5B00E31830BCD5
:10078000184702E008C8121F08C1002AFAD17047B2
:100790007047002001E001C1121F002AFBD1704701
:1007A000FFB58FB00F460446002606E025280AD084
:1007B000129A11999047641C761C20780028F5D174
:1007C000304613B0F0BD00250121A14A009500E09C
:1007D0000543641C23780846203B98401042F7D11B
:1007E00020782E2815D1042005436078641C2A281F
:1007F0000AD101CF641C00900BE000990A225143FA
:1008000030394018641C009020780146303909299D
:10081000F3D920786C280ED004DC4C2813D06A2839
:1008200012D104E074280ED07A280DD10BE00120FB
:100830004005054307E00121090562780D43824226
:1008400001D16D18641C641C2078864669284AD042
:1008500008DC0028B4D058286DD0632810D0642854
:1008600008D140E070286BD0732812D0752860D072
:10087000782860D0129A704611999047761CE5E06E
:100880003878694608720020487202A80190012059
:1008900003E0386801900020C0433F1D69070CD574
:1008A000002500E06D1C00998D420FDA8542F9DBCE
:1008B0000199495D0029F5D108E0002500E06D1C93
:1008C0008542FCDB0199495D0029F8D1761907E0E2
:1008D000019801990078491C0191129A1199904749
:1008E0006D1EF5D2B2E00A20029000216802400F8E
:1008F000039102280CD001CFC117844600290DDADC
:100900006246084652420021814194462D2008E06B
:10091000FF1DFF08FF0003CF8446EFE7280504D53D
:100920002B206A46107401203CE0E8073AD02020D2
:10093000F7E70A2000E0102000210391029007E071
:10094000102002900021042005430820039100900C
:100950006802400F022810D001CF002184460020F9
:100960000D9028071FD5704670280CD0029A1020D1
:10097000039B42401A430CD015E0FF1DFF08FF0007
:1009800003CF8446EBE740206A46107401200D90A7
:100990000CE06046084306D030206A46107470466A
:1009A000507402200D907046582804D029A0019060
:1009B0000DA80E900DE02CA0F9E76046039B029A6B
:1009C000FFF7C6FB019B84469B5C0E9A521E0E925B
:1009D000137060460843F0D10E9805A9081A20301C
:1009E0000190680701D5009801E00120009001996D
:1009F000884203DD01460198081A00E00020002526
:100A0000009006E004A8129A405D119990476D1C71
:100A1000761C0D988542F5DB04E0129A302011997E
:100A20009047761C0099481E00900029F5DC08E0EC
:100A30000E980E990078491C0E91129A11999047C0
:100A4000761C0199481E01900029F1DC641CB4E673
:100A50000928010030313233343536373839616294
:100A60006364656600000000303132333435363758
:100A700038394142434445460000000010B5FFF7B5
:100A8000B5FD10BDFFF7A3FD1FA0FFF75DFE26A07B
:100A9000FFF75AFEFFF714FD01212B48FFF7ACFCCE
:100AA00000252A4C0026FFF72FFB01C4761C082ED8
:100AB000F9D3264900200854401C2028FBD32348A2
:100AC000C32220212030FFF731FB6805010C1F48AD
:100AD00020222030FFF79AFC1C4E00242036315D86
:100AE0001BA0FFF731FEE00702D01BA0FFF72CFE92
:100AF000641C202CF3D3012040026D1C8542D0D30E
:100B000016A0FFF721FEFEE70D0A2A2A2A204854E4
:100B1000333220493243204578616D706C65204343
:100B20006F6465202A2A2A000D0A32344C43303281
:100B300020454550524F4D20766572696679696E41
:100B400067203A20000000000090044008000020C8
:100B500020257809000000000D0A0000205B50618C
:100B600073735D0A00000000020201000000010131
:100B7000010100000C0708000400080040000010FC
:100B80008000000100000B4000200B4000400B40A3
:100B900000000000001004400000100006000000EB
:100BA00020000600C40B0000000000200800000028
:100BB00082070000CC0B000008000020400200006B
:0C0BC00092070000000000000000000090
:04000005000000AD4A
:00000001FF
