:020000040000FA
:10000000280A0020AD0000003B0600003D0400006F
:10001000FFFFFFFFFFFFFFFFFFFFFFFFFFFFFFFFF0
:10002000FFFFFFFFFFFFFFFFFFFFFFFF7106000065
:10003000FFFFFFFFFFFFFFFF3D060000730600000C
:10004000BF000000BF000000BF000000BF000000B4
:10005000BF000000BF000000BF000000FFFFFFFF67
:10006000BF000000FFFFFFFFBF000000FFFFFFFF1A
:10007000BF000000BF000000BF000000BF00000084
:10008000BF000000BF000000BF000000BF00000074
:10009000BF000000BF000000BF000000BF00000064
:1000A000FFFFFFFFBF00000011070000044880476A
:1000B00004480047FEE7FEE7FEE7FEE7FEE7FEE74F
:1000C00075060000C90000000348854600F04CF8A2
:1000D00000480047110E0000280A002030B50B46EA
:1000E000014600202022012409E00D46D5409D4212
:1000F00005D31D469540491B254695404019154698
:10010000521E002DF1DC30BDF0B51FB406460020B4
:1001100082B005464024019100901BE001992246DF
:100120000F46304600F042F8049A059B801A994128
:1001300010D310461946224600F028F8361A8F418F
:100140000197224601200021009F00F01FF8381877
:100150004D4100902046641E0028DFDC019B009882
:100160002946324607B0F0BD064C0125064E05E093
:10017000E36807CC2B430C3C98471034B442F7D3C8
:10018000FFF7A6FF101100003011000010B5202A63
:1001900004DB0146203A9140002010BD914020230D
:1001A0009C1A0346E3401943904010BD10B5202A25
:1001B00004DB0846203AD040002110BD0B46D34056
:1001C000D0402024A21A91400843194610BD0000D7
:1001D000F0B596460A461349C0004618002300258C
:1001E000FF2098402C46104216D000200121994053
:1001F0008C461146C1406746394206D087000F2120
:10020000B9400D437146B9400C43401C0828F0D357
:100210003068A843204330600833361D082BDEDDEC
:10022000F0BD0000202002404168490849004160BB
:10023000BFF34F8F7047000010B50D486421006870
:10024000FFF74CFF0B4C0146204600F036F800212A
:10025000204600F034F80021204600F01BF8012170
:10026000204600F021F80021204600F005F810BDDE
:10027000180000200060074004220029016801D016
:10028000114300E09143016070474068C00700D00F
:10029000012070470029016802D00122114301E0CA
:1002A000490849000160704702220029016801D015
:1002B000114300E0914301607047C1607047816065
:1002C0007047000010B501220020120402490123EA
:1002D00000F078F810BD0000034D000070B51A4D15
:1002E0000446686B4607760F00F032F81749206025
:1002F000330000F033FB081505070715150F12151D
:10030000606000E06160286A05280BD360684009DE
:10031000A0600AE00120C003F2E77D200002EFE7C1
:100320000020EDE76168C140A160A86A4003400F6A
:10033000072803D0A168C140E16070BD0321A06817
:10034000FFF7CCFEE06070BD0080084000127A002C
:1003500010B50D4A1068D0690121C30F5068400ADA
:1003600008400FD00948002B0CD19369DB0D1C0706
:10037000240F00D1102492695202920F9140FFF78E
:10038000ADFE604310BD00000080084000127A00FE
:100390001FB541090A4A89008A1800212E2800D178
:1003A0000221C006C00E1268032383401A40C240D7
:1003B00054186846FFF792FF029804B0E04010BD61
:1003C00038800840F0B5084F7C6AFD6A3E6B844374
:1003D0008D439643002B02D004430D4316437C62A9
:1003E000FD623E63F0BD00000080084070B50D4620
:1003F00011490001441800200921C90201230246C5
:10040000FFF7E0FF227AE1882079FFF7E1FEA27B87
:10041000A189A07AFFF7DCFE2946206800F024FAC3
:1004200001220021206800F060FA012211462068B4
:1004300000F05BFA70BD000030100000FEE70029FC
:10044000016802D00122114301E04908490001601E
:100450007047C068884201D1012070470020704772
:10046000C160704708220029016801D0114300E0F3
:100470009143016070470000F8B514460F460546E9
:1004800000F03EFA1D26760431462648FFF7E1FFCC
:100490000028F9D0390A234800F0C3F8214E1D2165
:1004A00049043046FFF7D5FF0028F8D0F9B23046AE
:1004B00000F0B7F8012292025121304600F0B3F863
:1004C000194F30463946FFF7C4FF0028F9D0164FC0
:1004D000FF1C39463046FFF7BCFF0028F9D0012C3D
:1004E00003D901213046FFF7AAFF19273F04002C4A
:1004F00013D039463046FFF7ACFF0028F9D030461C
:1005000000F08CF82870641EA4B26D1C012CEED192
:1005100000213046FFF793FFEBE7304600F02EF85E
:10052000F8BD0000009004400100180010B5002440
:10053000224686B00E4901231046FFF743FF0121F2
:100540000722C9030120FFF743FE072201210220F1
:10055000FFF73EFE009401946846029484810548AA
:1005600004906946044800F013F806B010BD00007E
:1005700002400000204E000000900440016802226A
:10058000114301607047C068084000D001207047E7
:10059000F8B50E46044600250121FFF763FF03CEA0
:1005A00022680843316885239A4311430843206039
:1005B000B088A0601848083E844201D1002000E0C5
:1005C0000220FFF7E5FE0746206803218903084063
:1005D0001ED001218903401A1CD0884200D1092570
:1005E000316914204143F80038180091FFF776FD77
:1005F000461B0B2078430099FFF770FD401B002E2F
:1006000000DA0026002800DA002026616061F8BDCB
:100610000625E5E70825E3E7008004408069C0B2CD
:1006200070478161704703689B07FCD4002A02D0A1
:10063000012292021143C1617047704770470EB5A5
:10064000E12040020090FF200130694688800020B0
:10065000C88008814881FFF7C9FE0EBD0349C2B2B8
:100660000A600A69D205FCD57047000000100440FA
:100670007047704720480169002908D14169002965
:1006800005D18169002902D1C06900282CD01B49FD
:10069000012008601A4841680215114341608168D1
:1006A0008908C907FBD00168FF220132914301602C
:1006B0000521C9058161416852001143416081688B
:1006C0004908C907FBD00F4A1168C908C900891C2D
:1006D00011604168C908C900491C4160416B490764
:1006E000490F0129FAD17047BFF34F8F07490648D8
:1006F000C860BFF34F8FFEE7000308400083084047
:1007000000800840000208400400FA0500ED00E007
:10071000FEB546A003C8474E00250191009021E098
:10072000204600F0D5F8444FC4B23846FFF77CFDB0
:1007300000213846FFF7C3FD01213846FFF79CFD35
:100740003E490878002817D001282ED0022830D042
:100750003C493B4A08681454401C3A1508609042D2
:1007600000D30D60384C2021204600F077F8012896
:10077000D6D0BFF34F8FFEBD3248344A05601078A3
:100780006B461B5CA3420ED1401CC0B21070072800
:10079000E8D315702E48357005602E4805602E4848
:1007A0000560012003E01570DCE77470022008701A
:1007B000D8E770780028307814D003280FD80323A6
:1007C0001A1AD2009440224F401C3A68C0B2144317
:1007D0003C6030700428C5D135700B70C2E73570AD
:1007E0000D70BFE703280AD80321091AC9008C40FD
:1007F00018490A681443401C0C603070B2E707289F
:10080000B0D80722121AD2009440134B401C1A6829
:10081000C0B214431C6030700828A3D10D48026890
:10082000521C641C02601C60D9E700002B2B2B5269
:100830006F6D3A00140000200060074000000020A7
:1008400021040020040000200010044001000020CA
:10085000080000200C000020100000200069084063
:1008600000D001207047000070B504460D46C888CE
:1008700089886268084329890E4B1A40114308434E
:1008800069890843606001208007844201D11820F3
:1008900003E00948844207D11C20FFF779FD29684D
:1008A000FFF71CFC606270BD04488442FBD11E202F
:1008B000F3E70000FCE0FFFF0010004000100440E0
:1008C000002AC26801D00A4300E08A43C260704730
:1008D000006880B2704710B58368490030248C40AE
:1008E000A3438A401343836010BD10238B404168AB
:1008F000002A01D0194300E099434160704700008D
:1009000070B501240C4DE40421462846FFF73BFE58
:100910000028F9D101246402002251212846FFF762
:1009200082FE2846C268510705D49105FAD52146B2
:10093000FFF796FDF0E770BD009004400FB410B5CE
:1009400003A9044B044A029800F024F810BC08BC28
:1009500004B01847090E00001C00002030B4744693
:10096000641E2578641CAB4200D21D46635D5B00AB
:10097000E31830BC184702E008C8121F08C1002A5B
:10098000FAD170477047002001E001C1121F002A10
:10099000FBD17047FFB591B00F460546002606E033
:1009A00025280AD0149A139990476D1C761C287834
:1009B0000028F5D1304615B0F0BD00240094012187
:1009C000F34A029400E004436D1C2B780846203B58
:1009D00098401042F7D128782A280ED00221287892
:1009E0000246303A092A15D8009A0A235A43303A67
:1009F00080180C436D1C0090F1E701CF0090002897
:100A000005DA012040030443009840420090022090
:100A100004436D1C28782E2815D1042004436878DF
:100A20006D1C2A280AD101CF6D1C02900BE002999F
:100A30000A225143303940186D1C02902878014633
:100A400030390929F3D928786C2810D006DC4C28D5
:100A50001AD068280ED06A2817D104E0742813D061
:100A60007A2812D110E00120400504430CE0012156
:100A7000090501E0032109050C436978814203D18E
:100A80000120000524186D1C6D1C287803906E2829
:100A90001ED00CDC632831D004DC00288AD0582812
:100AA00011D1B2E064287BD069280CD178E073289A
:100AB0002DD004DC6F2870D0702804D1A7E07528F1
:100AC0006CD078286BD0149A13999047761C62E00A
:100AD0006002400F022807D003280AD00428386893
:100AE0000AD006603F1D56E03868F1170660416085
:100AF000F8E738680680F5E70670F3E73878694666
:100B000008740020487404A80390012003E03868AA
:100B100003900020C0433F1D61070FD5002101E075
:100B20000199491C029A0191914213DA8142F7DB43
:100B3000019A0399895C0029F2D10BE0002101E0C0
:100B40000199491C01918142FADB019A0399895C60
:100B50000029F5D101990098139A401A0090214676
:100B6000149B00F03BF901998019461807E003989F
:100B700003990078491C0391149A1399904701989E
:100B8000401E0190401CF2D12146149B139A0098FC
:100B900000F014F986196D1C09E741E033E034E0F8
:100BA0000A200021049005916002410F022905D01E
:100BB00001CFC2179446032905D007E0FF1DFF08A7
:100BC000FF0003CF06E000B2C2179446042902D109
:100BD00040B2C1178C4600226146944506DA0A46A7
:100BE0000021404291418C462D2102E0210504D58F
:100BF0002B216A461176012103E0E10701D0202173
:100C0000F7E7019154E00A200BE0102009E01020E2
:100C1000049000210420044308200591029003E081
:100C200008200021059104906002410F022905D09F
:100C300001CF00229446032906D006E0FF1DFF08DD
:100C4000FF0003CF8C4603E080B2042900D1C0B27C
:100C50000021019121072BD50399702906D0049A10
:100C60001021059B4A401A4305D00EE040216A46F8
:100C70001176012108E06146014306D030216A4621
:100C800011760399517602210191049A0821059B5E
:100C90004A401A430CD16146014301D1610707D58F
:100CA00030216A461176012101910299491E029173
:100CB0000399582904D037A103910FA90F910DE092
:100CC00039A1F9E76146059B049AFFF71DFA039BDA
:100CD0008C469B5C0F9A521E0F9213706146014323
:100CE000F0D10F9807A9081A20300390600704D5A7
:100CF000012000048443029801E00120029003993E
:100D0000884201DD401A00E000204118029001985D
:100D100009180098401A0090E00306D42146149B5D
:100D2000139A009800F05AF886190020049008E001
:100D300006A9085C149A139990470498401C761CE5
:100D4000049001998842F3DBE0030CD52146149B03
:100D5000139A009800F042F8861904E0149A3020A3
:100D600013999047761C0299481E02900029F5DCE1
:100D700008E00F980F990078491C0F91149A139965
:100D80009047761C0399481E03900029F1DCFBE68E
:100D90000928010030313233343536373839616251
:100DA0006364656600000000303132333435363715
:100DB000383941424344454600000000F8B5044636
:100DC00000251E461746880404D405E03946202035
:100DD000B0476D1C641EF9D52846F8BDFFB5044622
:100DE000002581B01E46C80301D5302700E020272A
:100DF000880404D505E038460399B0476D1C641E8D
:100E0000F9D5284605B0F0BD10B5FFF727FC10BD99
:100E10001CB5FFF714FC414C002201212046FFF7CE
:100E20005AFD012211462046FFF74AFD3C49A00326
:100E30000860FFF747FAFFF7FFF9FFF777FB01219B
:100E40003848FFF70FFB02235A0251003648FFF7DC
:100E500075FD0121002000F0B5F834A0FFF76EFD0C
:100E6000374E002777603748FFF70FFA0028FAD08F
:100E700001202B49800680310860377077707568D3
:100E8000002D1DD07760B16802290DD22EA0FFF78A
:100E900055FD002405E03C48015D3CA0FFF74EFDF8
:100EA000641CAC42F7D303E001213AA0FFF746FDF2
:100EB000244C2046FFF7B8F900212046FFF7DCF963
:100EC000F168002924D03269002A21D0521E491E1F
:100ED00002233261F16058020193009043003848C8
:100EE000FFF72CFD3169F06888420AD9044604E016
:100EF0002146084600F066F8641E30698442F7D146
:100F0000014600F05FF809A0FFF718FD3761F760B0
:100F10000120034980060860A5E700000010044096
:100F200000E100E000900440401000000D0A5B5218
:100F300065616420737563636573735D0D0A0000FA
:100F400000000020006007405B52454144204F4EA6
:100F50004C595D3A286A7573742072657475726EA7
:100F600020796F757220646174612C6E6F742065D6
:100F700065726F6D2977726974652070616765208D
:100F80002564203A0D0A0000210400202532782C27
:100F9000000000005B4661696C65645D3A706167E2
:100FA00065206F7574207468652072616E67652CAA
:100FB0004D415820506167653D25640D0A000000D1
:100FC000A4100000F3B5012681B00546B6020A4F11
:100FD0000EE0A806010C32460748FFF74DFA002440
:100FE000395D06A0FFF7AAFC641CB442F8D36D1C5F
:100FF00002988542EDD9FEBD2000002020253278E0
:101000002C000000020201000000010101010000AB
:101010000C070800040008004000001080000001D8
:1010200000000B4000200B4000400B40000000007F
:101030000010044000001000060000002000060020
:101040005B537461727420526561645D3A2020665E
:10105000756C6C20646174612C20204932435F45BB
:101060004550524F4D5F43415041434954593D25EE
:101070006420204932435F454550524F4D5F5041F7
:1010800047455F53495A453D256420204545505208
:101090004F4D5F504147455F4D41583D25640D0A16
:1010A000000000005B537461727420526561645DDE
:1010B0003A202070616765256C64202D3E207061A8
:1010C0006765256C642C20204932435F45455052AA
:1010D0004F4D5F43415041434954593D25642020C1
:1010E0004932435F454550524F4D5F504147455F40
:1010F00053495A453D25642020454550524F4D5F88
:10110000504147455F4D41583D25640D0A000000A0
:1011100030110000000000202000000076090000CF
:101120005011000020000020080A0000860900007D
:1011300000000000000000000000000000000000AF
:101140000000000000000000005A620200000000E1
:04000005000000AD4A
:00000001FF
